{
  "contractName": "Supplier",
  "abi": [
    {
      "constant": true,
      "inputs": [],
      "name": "itemCount",
      "outputs": [
        {
          "name": "",
          "type": "uint256"
        }
      ],
      "payable": false,
      "stateMutability": "view",
      "type": "function",
      "signature": "0x6bfb0d01"
    },
    {
      "constant": true,
      "inputs": [
        {
          "name": "",
          "type": "uint256"
        }
      ],
      "name": "tasks",
      "outputs": [
        {
          "name": "id",
          "type": "uint256"
        },
        {
          "name": "deliveryDate",
          "type": "string"
        },
        {
          "name": "deliveryAddress",
          "type": "string"
        },
        {
          "name": "locationName",
          "type": "string"
        },
        {
          "name": "Supplier",
          "type": "string"
        },
        {
          "name": "completed",
          "type": "bool"
        }
      ],
      "payable": false,
      "stateMutability": "view",
      "type": "function",
      "signature": "0x8d977672"
    },
    {
      "constant": true,
      "inputs": [],
      "name": "taskCount",
      "outputs": [
        {
          "name": "",
          "type": "uint256"
        }
      ],
      "payable": false,
      "stateMutability": "view",
      "type": "function",
      "signature": "0xb6cb58a5"
    },
    {
      "constant": true,
      "inputs": [
        {
          "name": "",
          "type": "uint256"
        }
      ],
      "name": "items",
      "outputs": [
        {
          "name": "id",
          "type": "uint256"
        },
        {
          "name": "item",
          "type": "string"
        },
        {
          "name": "quantity",
          "type": "string"
        },
        {
          "name": "uom",
          "type": "string"
        },
        {
          "name": "taskId",
          "type": "uint256"
        }
      ],
      "payable": false,
      "stateMutability": "view",
      "type": "function",
      "signature": "0xbfb231d2"
    },
    {
      "constant": false,
      "inputs": [
        {
          "name": "_item",
          "type": "string"
        },
        {
          "name": "_quantity",
          "type": "string"
        },
        {
          "name": "_uom",
          "type": "string"
        }
      ],
      "name": "CreateItem",
      "outputs": [],
      "payable": false,
      "stateMutability": "nonpayable",
      "type": "function",
      "signature": "0xb01d64b4"
    },
    {
      "constant": false,
      "inputs": [
        {
          "name": "_deliveryDate",
          "type": "string"
        },
        {
          "name": "_address",
          "type": "string"
        },
        {
          "name": "_locationName",
          "type": "string"
        },
        {
          "name": "_supplierName",
          "type": "string"
        }
      ],
      "name": "CreateTask",
      "outputs": [],
      "payable": false,
      "stateMutability": "nonpayable",
      "type": "function",
      "signature": "0x91dc66d2"
    }
  ],
  "bytecode": "0x608060405260008055600060015534801561001957600080fd5b50610ea5806100296000396000f3fe6080604052600436106100775763ffffffff7c01000000000000000000000000000000000000000000000000000000006000350416636bfb0d01811461007c5780638d977672146100a357806391dc66d214610289578063b01d64b4146104d3578063b6cb58a514610694578063bfb231d2146106a9575b600080fd5b34801561008857600080fd5b50610091610825565b60408051918252519081900360200190f35b3480156100af57600080fd5b506100cd600480360360208110156100c657600080fd5b503561082b565b60405180878152602001806020018060200180602001806020018615151515815260200185810385528a818151815260200191508051906020019080838360005b8381101561012657818101518382015260200161010e565b50505050905090810190601f1680156101535780820380516001836020036101000a031916815260200191505b5085810384528951815289516020918201918b019080838360005b8381101561018657818101518382015260200161016e565b50505050905090810190601f1680156101b35780820380516001836020036101000a031916815260200191505b5085810383528851815288516020918201918a019080838360005b838110156101e65781810151838201526020016101ce565b50505050905090810190601f1680156102135780820380516001836020036101000a031916815260200191505b50858103825287518152875160209182019189019080838360005b8381101561024657818101518382015260200161022e565b50505050905090810190601f1680156102735780820380516001836020036101000a031916815260200191505b509a505050505050505050505060405180910390f35b34801561029557600080fd5b506104d1600480360360808110156102ac57600080fd5b8101906020810181356401000000008111156102c757600080fd5b8201836020820111156102d957600080fd5b803590602001918460018302840111640100000000831117156102fb57600080fd5b91908080601f016020809104026020016040519081016040528093929190818152602001838380828437600092019190915250929594936020810193503591505064010000000081111561034e57600080fd5b82018360208201111561036057600080fd5b8035906020019184600183028401116401000000008311171561038257600080fd5b91908080601f01602080910402602001604051908101604052809392919081815260200183838082843760009201919091525092959493602081019350359150506401000000008111156103d557600080fd5b8201836020820111156103e757600080fd5b8035906020019184600183028401116401000000008311171561040957600080fd5b91908080601f016020809104026020016040519081016040528093929190818152602001838380828437600092019190915250929594936020810193503591505064010000000081111561045c57600080fd5b82018360208201111561046e57600080fd5b8035906020019184600183028401116401000000008311171561049057600080fd5b91908080601f016020809104026020016040519081016040528093929190818152602001838380828437600092019190915250929550610a8d945050505050565b005b3480156104df57600080fd5b506104d1600480360360608110156104f657600080fd5b81019060208101813564010000000081111561051157600080fd5b82018360208201111561052357600080fd5b8035906020019184600183028401116401000000008311171561054557600080fd5b91908080601f016020809104026020016040519081016040528093929190818152602001838380828437600092019190915250929594936020810193503591505064010000000081111561059857600080fd5b8201836020820111156105aa57600080fd5b803590602001918460018302840111640100000000831117156105cc57600080fd5b91908080601f016020809104026020016040519081016040528093929190818152602001838380828437600092019190915250929594936020810193503591505064010000000081111561061f57600080fd5b82018360208201111561063157600080fd5b8035906020019184600183028401116401000000008311171561065357600080fd5b91908080601f016020809104026020016040519081016040528093929190818152602001838380828437600092019190915250929550610b66945050505050565b3480156106a057600080fd5b50610091610c0b565b3480156106b557600080fd5b506106d3600480360360208110156106cc57600080fd5b5035610c11565b60405180868152602001806020018060200180602001858152602001848103845288818151815260200191508051906020019080838360005b8381101561072457818101518382015260200161070c565b50505050905090810190601f1680156107515780820380516001836020036101000a031916815260200191505b50848103835287518152875160209182019189019080838360005b8381101561078457818101518382015260200161076c565b50505050905090810190601f1680156107b15780820380516001836020036101000a031916815260200191505b50848103825286518152865160209182019188019080838360005b838110156107e45781810151838201526020016107cc565b50505050905090810190601f1680156108115780820380516001836020036101000a031916815260200191505b509850505050505050505060405180910390f35b60015481565b6003602090815260009182526040918290208054600180830180548651600293821615610100026000190190911692909204601f8101869004860283018601909652858252919492939092908301828280156108c85780601f1061089d576101008083540402835291602001916108c8565b820191906000526020600020905b8154815290600101906020018083116108ab57829003601f168201915b50505060028085018054604080516020601f600019610100600187161502019094169590950492830185900485028101850190915281815295969594509092509083018282801561095a5780601f1061092f5761010080835404028352916020019161095a565b820191906000526020600020905b81548152906001019060200180831161093d57829003601f168201915b5050505060038301805460408051602060026001851615610100026000190190941693909304601f81018490048402820184019092528181529495949350908301828280156109ea5780601f106109bf576101008083540402835291602001916109ea565b820191906000526020600020905b8154815290600101906020018083116109cd57829003601f168201915b5050505060048301805460408051602060026001851615610100026000190190941693909304601f8101849004840282018401909252818152949594935090830182828015610a7a5780601f10610a4f57610100808354040283529160200191610a7a565b820191906000526020600020905b815481529060010190602001808311610a5d57829003601f168201915b5050506005909301549192505060ff1686565b6000805460019081018083556040805160c08101825282815260208082018a81528284018a9052606083018990526080830188905260a08301879052938652600381529190942084518155915180519293610af093908501929190910190610dde565b5060408201518051610b0c916002840191602090910190610dde565b5060608201518051610b28916003840191602090910190610dde565b5060808201518051610b44916004840191602090910190610dde565b5060a091909101516005909101805460ff191691151591909117905550505050565b6001805481018082556040805160a0810182528281526020808201888152828401889052606083018790526000805460808501529485526002825292909320815181559151805191949293610bc093850192910190610dde565b5060408201518051610bdc916002840191602090910190610dde565b5060608201518051610bf8916003840191602090910190610dde565b5060808201518160040155905050505050565b60005481565b60026020818152600092835260409283902080546001808301805487519281161561010002600019011695909504601f8101859004850282018501909652858152909491939092909190830182828015610cac5780601f10610c8157610100808354040283529160200191610cac565b820191906000526020600020905b815481529060010190602001808311610c8f57829003601f168201915b50505060028085018054604080516020601f6000196101006001871615020190941695909504928301859004850281018501909152818152959695945090925090830182828015610d3e5780601f10610d1357610100808354040283529160200191610d3e565b820191906000526020600020905b815481529060010190602001808311610d2157829003601f168201915b5050505060038301805460408051602060026001851615610100026000190190941693909304601f8101849004840282018401909252818152949594935090830182828015610dce5780601f10610da357610100808354040283529160200191610dce565b820191906000526020600020905b815481529060010190602001808311610db157829003601f168201915b5050505050908060040154905085565b828054600181600116156101000203166002900490600052602060002090601f016020900481019282601f10610e1f57805160ff1916838001178555610e4c565b82800160010185558215610e4c579182015b82811115610e4c578251825591602001919060010190610e31565b50610e58929150610e5c565b5090565b610e7691905b80821115610e585760008155600101610e62565b9056fea165627a7a72305820caf9cee8833c96e492cbd3047cdac4c4bcf98be88bcd05178fb837e06bfa2b800029",
  "source": "pragma solidity ^0.5.0;\r\n\r\ncontract Supplier {\r\n    uint public taskCount = 0;\r\n    uint public itemCount = 0;\r\n\r\n\r\n    struct Item {\r\n        uint id;\r\n        string item;\r\n        string quantity;\r\n        string uom;\r\n        uint taskId;\r\n    }\r\n\r\n    struct Location {\r\n        string deliveryAddress;\r\n        string name;\r\n    }\r\n\r\n    struct Task {\r\n        uint id;\r\n        string deliveryDate;\r\n        string deliveryAddress;\r\n        string locationName;\r\n        string Supplier;\r\n        bool completed;\r\n    }\r\n\r\n    mapping(uint => Item) public items;\r\n    mapping(uint => Task) public tasks;\r\n\r\n    function CreateItem (string memory _item, string memory _quantity, string memory _uom) public {\r\n        itemCount++;\r\n        items[itemCount] = Item(itemCount, _item, _quantity, _uom, taskCount); \r\n    }\r\n\r\n    function CreateTask (string memory _deliveryDate, string memory _address, string memory _locationName, string memory _supplierName) public {\r\n        taskCount++;\r\n        tasks[taskCount] = Task(taskCount, _deliveryDate, _address, _locationName, _supplierName, false);\r\n    }\r\n}",
  "sourcePath": "C:/eth/contracts/Supplier.sol",
  "compiler": {
    "name": "solc",
    "version": "0.5.0+commit.1d4f565a.Emscripten.clang"
  },
  "schemaVersion": "3.0.1",
  "updatedAt": "2020-12-31T13:37:07.796Z",
  "devdoc": {
    "methods": {}
  },
  "userdoc": {
    "methods": {}
  }
}