{
  "contractName": "Supplier",
  "abi": [
    {
      "constant": true,
      "inputs": [],
      "name": "itemCount",
      "outputs": [
        {
          "name": "",
          "type": "uint256"
        }
      ],
      "payable": false,
      "stateMutability": "view",
      "type": "function",
      "signature": "0x6bfb0d01"
    }
  ],
  "bytecode": "0x608060405260008055348015601357600080fd5b50609e806100226000396000f3fe608060405260043610603f576000357c0100000000000000000000000000000000000000000000000000000000900463ffffffff1680636bfb0d01146044575b600080fd5b348015604f57600080fd5b506056606c565b6040518082815260200191505060405180910390f35b6000548156fea165627a7a7230582079538e8201b41b2284080a794fae3eefd9ee9f3e4ad6363a198b0bb90481e6490029",
  "source": "pragma solidity ^0.5.0;\r\n\r\ncontract Supplier {\r\n    uint public itemCount = 0;\r\n}",
  "sourcePath": "C:/eth/contracts/Supplier.sol",
  "compiler": {
    "name": "solc",
    "version": "0.5.0+commit.1d4f565a.Emscripten.clang"
  },
  "schemaVersion": "3.0.1",
  "updatedAt": "2020-12-27T20:10:47.510Z",
  "devdoc": {
    "methods": {}
  },
  "userdoc": {
    "methods": {}
  }
}