{
  "contractName": "Supplier",
  "abi": [
    {
      "constant": true,
      "inputs": [],
      "name": "supplierCount",
      "outputs": [
        {
          "name": "",
          "type": "uint256"
        }
      ],
      "payable": false,
      "stateMutability": "view",
      "type": "function",
      "signature": "0x140c6b91"
    },
    {
      "constant": true,
      "inputs": [],
      "name": "itemCount",
      "outputs": [
        {
          "name": "",
          "type": "uint256"
        }
      ],
      "payable": false,
      "stateMutability": "view",
      "type": "function",
      "signature": "0x6bfb0d01"
    },
    {
      "constant": true,
      "inputs": [],
      "name": "locationCount",
      "outputs": [
        {
          "name": "",
          "type": "uint256"
        }
      ],
      "payable": false,
      "stateMutability": "view",
      "type": "function",
      "signature": "0x88703254"
    },
    {
      "constant": true,
      "inputs": [
        {
          "name": "",
          "type": "uint256"
        }
      ],
      "name": "tasks",
      "outputs": [
        {
          "name": "id",
          "type": "uint256"
        },
        {
          "name": "deliveryDate",
          "type": "uint256"
        },
        {
          "name": "locationId",
          "type": "uint256"
        },
        {
          "name": "supplierId",
          "type": "uint256"
        },
        {
          "name": "completed",
          "type": "bool"
        },
        {
          "name": "status",
          "type": "uint8"
        },
        {
          "name": "isDeleted",
          "type": "bool"
        }
      ],
      "payable": false,
      "stateMutability": "view",
      "type": "function",
      "signature": "0x8d977672"
    },
    {
      "constant": true,
      "inputs": [],
      "name": "taskCount",
      "outputs": [
        {
          "name": "",
          "type": "uint256"
        }
      ],
      "payable": false,
      "stateMutability": "view",
      "type": "function",
      "signature": "0xb6cb58a5"
    },
    {
      "constant": true,
      "inputs": [
        {
          "name": "",
          "type": "uint256"
        }
      ],
      "name": "locations",
      "outputs": [
        {
          "name": "id",
          "type": "uint256"
        },
        {
          "name": "deliveryAddress",
          "type": "string"
        },
        {
          "name": "name",
          "type": "string"
        },
        {
          "name": "isDeleted",
          "type": "bool"
        }
      ],
      "payable": false,
      "stateMutability": "view",
      "type": "function",
      "signature": "0xb9e0db35"
    },
    {
      "constant": true,
      "inputs": [
        {
          "name": "",
          "type": "uint256"
        }
      ],
      "name": "items",
      "outputs": [
        {
          "name": "id",
          "type": "uint256"
        },
        {
          "name": "item",
          "type": "string"
        },
        {
          "name": "quantity",
          "type": "string"
        },
        {
          "name": "uom",
          "type": "string"
        },
        {
          "name": "source",
          "type": "string"
        },
        {
          "name": "taskId",
          "type": "uint256"
        },
        {
          "name": "isDeleted",
          "type": "bool"
        }
      ],
      "payable": false,
      "stateMutability": "view",
      "type": "function",
      "signature": "0xbfb231d2"
    },
    {
      "constant": true,
      "inputs": [
        {
          "name": "",
          "type": "uint256"
        }
      ],
      "name": "suppliers",
      "outputs": [
        {
          "name": "id",
          "type": "uint256"
        },
        {
          "name": "name",
          "type": "string"
        },
        {
          "name": "supplierRegion",
          "type": "uint8"
        },
        {
          "name": "score",
          "type": "uint256"
        },
        {
          "name": "isDeleted",
          "type": "bool"
        }
      ],
      "payable": false,
      "stateMutability": "view",
      "type": "function",
      "signature": "0xcea23121"
    },
    {
      "inputs": [],
      "payable": false,
      "stateMutability": "nonpayable",
      "type": "constructor",
      "signature": "constructor"
    },
    {
      "constant": false,
      "inputs": [
        {
          "name": "_item",
          "type": "string"
        },
        {
          "name": "_quantity",
          "type": "string"
        },
        {
          "name": "_uom",
          "type": "string"
        },
        {
          "name": "_source",
          "type": "string"
        },
        {
          "name": "_taskId",
          "type": "uint256"
        }
      ],
      "name": "CreateItem",
      "outputs": [],
      "payable": false,
      "stateMutability": "nonpayable",
      "type": "function",
      "signature": "0xbe28efcc"
    },
    {
      "constant": false,
      "inputs": [
        {
          "name": "_deliveryDate",
          "type": "uint256"
        },
        {
          "name": "_locationId",
          "type": "uint256"
        },
        {
          "name": "_supplierId",
          "type": "uint256"
        },
        {
          "name": "_status",
          "type": "uint8"
        }
      ],
      "name": "CreateTask",
      "outputs": [],
      "payable": false,
      "stateMutability": "nonpayable",
      "type": "function",
      "signature": "0x9d56261c"
    },
    {
      "constant": false,
      "inputs": [
        {
          "name": "_address",
          "type": "string"
        },
        {
          "name": "_name",
          "type": "string"
        }
      ],
      "name": "CreateLocation",
      "outputs": [],
      "payable": false,
      "stateMutability": "nonpayable",
      "type": "function",
      "signature": "0x59907888"
    },
    {
      "constant": false,
      "inputs": [
        {
          "name": "_name",
          "type": "string"
        },
        {
          "name": "_region",
          "type": "uint8"
        }
      ],
      "name": "CreateSupplier",
      "outputs": [],
      "payable": false,
      "stateMutability": "nonpayable",
      "type": "function",
      "signature": "0x0d99fa68"
    },
    {
      "constant": false,
      "inputs": [
        {
          "name": "_status",
          "type": "uint8"
        },
        {
          "name": "_taskId",
          "type": "uint256"
        }
      ],
      "name": "UpdateTaskStatus",
      "outputs": [],
      "payable": false,
      "stateMutability": "nonpayable",
      "type": "function",
      "signature": "0x0228a6ea"
    },
    {
      "constant": false,
      "inputs": [
        {
          "name": "_completed",
          "type": "bool"
        },
        {
          "name": "_taskId",
          "type": "uint256"
        }
      ],
      "name": "UpdateTaskCompletionStatus",
      "outputs": [],
      "payable": false,
      "stateMutability": "nonpayable",
      "type": "function",
      "signature": "0xfaf9d501"
    },
    {
      "constant": false,
      "inputs": [
        {
          "name": "_address",
          "type": "string"
        },
        {
          "name": "_locationId",
          "type": "uint256"
        }
      ],
      "name": "UpdateLocationAddress",
      "outputs": [],
      "payable": false,
      "stateMutability": "nonpayable",
      "type": "function",
      "signature": "0xbd23ea2f"
    },
    {
      "constant": false,
      "inputs": [
        {
          "name": "_score",
          "type": "uint256"
        },
        {
          "name": "_supplierId",
          "type": "uint256"
        }
      ],
      "name": "UpdateSupplierScore",
      "outputs": [],
      "payable": false,
      "stateMutability": "nonpayable",
      "type": "function",
      "signature": "0x3d33b0f2"
    },
    {
      "constant": false,
      "inputs": [
        {
          "name": "_name",
          "type": "string"
        },
        {
          "name": "_supplierId",
          "type": "uint256"
        }
      ],
      "name": "UpdateSupplierName",
      "outputs": [],
      "payable": false,
      "stateMutability": "nonpayable",
      "type": "function",
      "signature": "0xed7e26fe"
    },
    {
      "constant": false,
      "inputs": [
        {
          "name": "_taskId",
          "type": "uint256"
        }
      ],
      "name": "DeleteTask",
      "outputs": [],
      "payable": false,
      "stateMutability": "nonpayable",
      "type": "function",
      "signature": "0x8c2dccd1"
    },
    {
      "constant": false,
      "inputs": [
        {
          "name": "_itemId",
          "type": "uint256"
        }
      ],
      "name": "DeleteItem",
      "outputs": [],
      "payable": false,
      "stateMutability": "nonpayable",
      "type": "function",
      "signature": "0x2c199064"
    },
    {
      "constant": false,
      "inputs": [
        {
          "name": "_locationId",
          "type": "uint256"
        }
      ],
      "name": "DeleteLocation",
      "outputs": [],
      "payable": false,
      "stateMutability": "nonpayable",
      "type": "function",
      "signature": "0x9897f0c3"
    },
    {
      "constant": false,
      "inputs": [
        {
          "name": "_supplierId",
          "type": "uint256"
        }
      ],
      "name": "DeleteSupplier",
      "outputs": [],
      "payable": false,
      "stateMutability": "nonpayable",
      "type": "function",
      "signature": "0xedfb4230"
    }
  ],
  "bytecode": "0x6080604052600080556000600155600060025560006003553480156200002457600080fd5b5060408051808201909152601481527f5369646c61736f6e6b6520736f6c7574696f6e7300000000000000000000000060208201526200006f90600064010000000062000414810204565b6200011b606060405190810160405280602481526020017f313037203372642052642c2048796465205061726b2c2053616e64746f6e2c2081526020017f32313936000000000000000000000000000000000000000000000000000000008152506040805190810160405280601581526020017f48796465205061726b2048696768205363686f6f6c0000000000000000000000815250620004d3640100000000026401000000009004565b6200020e6040805190810160405280600781526020017f50656163686573000000000000000000000000000000000000000000000000008152506040805190810160405280600181526020017f35000000000000000000000000000000000000000000000000000000000000008152506040805190810160405280600281526020017f4b670000000000000000000000000000000000000000000000000000000000008152506040805190810160405280600a81526020017f5069636b206e2050617900000000000000000000000000000000000000000000815250600062000569640100000000026401000000009004565b620003016040805190810160405280600781526020017f436172726f7473000000000000000000000000000000000000000000000000008152506040805190810160405280600281526020017f31300000000000000000000000000000000000000000000000000000000000008152506040805190810160405280600281526020017f4b670000000000000000000000000000000000000000000000000000000000008152506040805190810160405280600881526020017f436865636b657273000000000000000000000000000000000000000000000000815250600062000569640100000000026401000000009004565b620003f46040805190810160405280600481526020017f52696365000000000000000000000000000000000000000000000000000000008152506040805190810160405280600381526020017f32303000000000000000000000000000000000000000000000000000000000008152506040805190810160405280600181526020017f67000000000000000000000000000000000000000000000000000000000000008152506040805190810160405280600a81526020017f576f6f6c776f7274687300000000000000000000000000000000000000000000815250600062000569640100000000026401000000009004565b6200040e6103e8600080806401000000006200065d810204565b620007ea565b60a06040519081016040528060035481526020018381526020018260088111156200043b57fe5b8152600360208083018290526000604093840181905291548252600781529190208251815582820151805191926200047c9260018501929091019062000745565b50604082015160028201805460ff191660018360088111156200049b57fe5b021790555060608201516003828101919091556080909201516004909101805460ff1916911515919091179055805460010190555050565b6040805160808101825260025480825260208083018681528385018690526000606085018190529283526006825293909120825181559251805192939262000522926001850192019062000745565b50604082015180516200054091600284019160209091019062000745565b50606091909101516003909101805460ff19169115159190911790555050600280546001019055565b6040805160e0810182526001805480835260208084018a81528486018a9052606085018990526080850188905260a08501879052600060c0860181905292835260048252949091208351815593518051939493620005cf93850192919091019062000745565b5060408201518051620005ed91600284019160209091019062000745565b50606082015180516200060b91600384019160209091019062000745565b50608082015180516200062991600484019160209091019062000745565b5060a0820151600582015560c0909101516006909101805460ff191691151591909117905550506001805481019055505050565b60e06040519081016040528060005481526020018581526020018481526020018381526020016000151581526020018260028111156200069957fe5b81526000602091820181905280548152600582526040908190208351815591830151600183015582015160028083019190915560608301516003830155608083015160048301805460ff19169115159190911780825560a08501519261ff0019909116906101009084908111156200070d57fe5b021790555060c0919091015160049091018054911515620100000262ff00001990921691909117905550506000805460010190555050565b828054600181600116156101000203166002900490600052602060002090601f016020900481019282601f106200078857805160ff1916838001178555620007b8565b82800160010185558215620007b8579182015b82811115620007b85782518255916020019190600101906200079b565b50620007c6929150620007ca565b5090565b620007e791905b80821115620007c65760008155600101620007d1565b90565b6116a680620007fa6000396000f3fe60806040526004361061011c5763ffffffff7c01000000000000000000000000000000000000000000000000000000006000350416630228a6ea81146101215780630d99fa6814610156578063140c6b911461020e5780632c199064146102355780633d33b0f21461025f578063599078881461028f5780636bfb0d01146103c957806388703254146103de5780638c2dccd1146103f35780638d9776721461041d5780639897f0c31461049a5780639d56261c146104c4578063b6cb58a514610503578063b9e0db3514610518578063bd23ea2f14610632578063be28efcc146106e7578063bfb231d214610931578063cea2312114610b1e578063ed7e26fe14610bae578063edfb423014610c63578063faf9d50114610c8d575b600080fd5b34801561012d57600080fd5b506101546004803603604081101561014457600080fd5b5060ff8135169060200135610cbf565b005b34801561016257600080fd5b506101546004803603604081101561017957600080fd5b81019060208101813564010000000081111561019457600080fd5b8201836020820111156101a657600080fd5b803590602001918460018302840111640100000000831117156101c857600080fd5b91908080601f0160208091040260200160405190810160405280939291908181526020018383808284376000920191909152509295505050903560ff169150610cf49050565b34801561021a57600080fd5b50610223610daf565b60408051918252519081900360200190f35b34801561024157600080fd5b506101546004803603602081101561025857600080fd5b5035610db5565b34801561026b57600080fd5b506101546004803603604081101561028257600080fd5b5080359060200135610dd3565b34801561029b57600080fd5b50610154600480360360408110156102b257600080fd5b8101906020810181356401000000008111156102cd57600080fd5b8201836020820111156102df57600080fd5b8035906020019184600183028401116401000000008311171561030157600080fd5b91908080601f016020809104026020016040519081016040528093929190818152602001838380828437600092019190915250929594936020810193503591505064010000000081111561035457600080fd5b82018360208201111561036657600080fd5b8035906020019184600183028401116401000000008311171561038857600080fd5b91908080601f016020809104026020016040519081016040528093929190818152602001838380828437600092019190915250929550610de7945050505050565b3480156103d557600080fd5b50610223610e79565b3480156103ea57600080fd5b50610223610e7f565b3480156103ff57600080fd5b506101546004803603602081101561041657600080fd5b5035610e85565b34801561042957600080fd5b506104476004803603602081101561044057600080fd5b5035610ea7565b604051808881526020018781526020018681526020018581526020018415151515815260200183600281111561047957fe5b60ff1681529115156020830152506040805191829003019650945050505050f35b3480156104a657600080fd5b50610154600480360360208110156104bd57600080fd5b5035610eec565b3480156104d057600080fd5b50610154600480360360808110156104e757600080fd5b508035906020810135906040810135906060013560ff16610f0a565b34801561050f57600080fd5b50610223610ff0565b34801561052457600080fd5b506105426004803603602081101561053b57600080fd5b5035610ff6565b60405180858152602001806020018060200184151515158152602001838103835286818151815260200191508051906020019080838360005b8381101561059357818101518382015260200161057b565b50505050905090810190601f1680156105c05780820380516001836020036101000a031916815260200191505b50838103825285518152855160209182019187019080838360005b838110156105f35781810151838201526020016105db565b50505050905090810190601f1680156106205780820380516001836020036101000a031916815260200191505b50965050505050505060405180910390f35b34801561063e57600080fd5b506101546004803603604081101561065557600080fd5b81019060208101813564010000000081111561067057600080fd5b82018360208201111561068257600080fd5b803590602001918460018302840111640100000000831117156106a457600080fd5b91908080601f0160208091040260200160405190810160405280939291908181526020018383808284376000920191909152509295505091359250611138915050565b3480156106f357600080fd5b50610154600480360360a081101561070a57600080fd5b81019060208101813564010000000081111561072557600080fd5b82018360208201111561073757600080fd5b8035906020019184600183028401116401000000008311171561075957600080fd5b91908080601f01602080910402602001604051908101604052809392919081815260200183838082843760009201919091525092959493602081019350359150506401000000008111156107ac57600080fd5b8201836020820111156107be57600080fd5b803590602001918460018302840111640100000000831117156107e057600080fd5b91908080601f016020809104026020016040519081016040528093929190818152602001838380828437600092019190915250929594936020810193503591505064010000000081111561083357600080fd5b82018360208201111561084557600080fd5b8035906020019184600183028401116401000000008311171561086757600080fd5b91908080601f01602080910402602001604051908101604052809392919081815260200183838082843760009201919091525092959493602081019350359150506401000000008111156108ba57600080fd5b8201836020820111156108cc57600080fd5b803590602001918460018302840111640100000000831117156108ee57600080fd5b91908080601f0160208091040260200160405190810160405280939291908181526020018383808284376000920191909152509295505091359250611164915050565b34801561093d57600080fd5b5061095b6004803603602081101561095457600080fd5b5035611250565b60405180888152602001806020018060200180602001806020018781526020018615151515815260200185810385528b818151815260200191508051906020019080838360005b838110156109ba5781810151838201526020016109a2565b50505050905090810190601f1680156109e75780820380516001836020036101000a031916815260200191505b5085810384528a5181528a516020918201918c019080838360005b83811015610a1a578181015183820152602001610a02565b50505050905090810190601f168015610a475780820380516001836020036101000a031916815260200191505b5085810383528951815289516020918201918b019080838360005b83811015610a7a578181015183820152602001610a62565b50505050905090810190601f168015610aa75780820380516001836020036101000a031916815260200191505b5085810382528851815288516020918201918a019080838360005b83811015610ada578181015183820152602001610ac2565b50505050905090810190601f168015610b075780820380516001836020036101000a031916815260200191505b509b50505050505050505050505060405180910390f35b348015610b2a57600080fd5b50610b4860048036036020811015610b4157600080fd5b50356114b9565b6040518086815260200180602001856008811115610b6257fe5b60ff1681526020018481526020018315151515815260200182810382528681815181526020019150805190602001908083836000838110156105f35781810151838201526020016105db565b348015610bba57600080fd5b5061015460048036036040811015610bd157600080fd5b810190602081018135640100000000811115610bec57600080fd5b820183602082011115610bfe57600080fd5b80359060200191846001830284011164010000000083111715610c2057600080fd5b91908080601f0160208091040260200160405190810160405280939291908181526020018383808284376000920191909152509295505091359250611579915050565b348015610c6f57600080fd5b5061015460048036036020811015610c8657600080fd5b503561159f565b348015610c9957600080fd5b5061015460048036036040811015610cb057600080fd5b508035151590602001356115bd565b600081815260056020526040902060048101805484919061ff001916610100836002811115610cea57fe5b0217905550505050565b60a0604051908101604052806003548152602001838152602001826008811115610d1a57fe5b815260036020808301829052600060409384018190529154825260078152919020825181558282015180519192610d59926001850192909101906115df565b50604082015160028201805460ff19166001836008811115610d7757fe5b021790555060608201516003828101919091556080909201516004909101805460ff1916911515919091179055805460010190555050565b60035481565b6000908152600460205260409020600601805460ff19166001179055565b600090815260076020526040902060030155565b60408051608081018252600254808252602080830186815283850186905260006060850181905292835260068252939091208251815592518051929392610e3492600185019201906115df565b5060408201518051610e509160028401916020909101906115df565b50606091909101516003909101805460ff19169115159190911790555050600280546001019055565b60015481565b60025481565b6000908152600560205260409020600401805462ff0000191662010000179055565b600560205260009081526040902080546001820154600283015460038401546004909401549293919290919060ff808216916101008104821691620100009091041687565b6000908152600660205260409020600301805460ff19166001179055565b60e0604051908101604052806000548152602001858152602001848152602001838152602001600015158152602001826002811115610f4557fe5b81526000602091820181905280548152600582526040908190208351815591830151600183015582015160028083019190915560608301516003830155608083015160048301805460ff19169115159190911780825560a08501519261ff001990911690610100908490811115610fb857fe5b021790555060c0919091015160049091018054911515620100000262ff00001990921691909117905550506000805460010190555050565b60005481565b6006602090815260009182526040918290208054600180830180548651600293821615610100026000190190911692909204601f8101869004860283018601909652858252919492939092908301828280156110935780601f1061106857610100808354040283529160200191611093565b820191906000526020600020905b81548152906001019060200180831161107657829003601f168201915b50505060028085018054604080516020601f60001961010060018716150201909416959095049283018590048502810185019091528181529596959450909250908301828280156111255780601f106110fa57610100808354040283529160200191611125565b820191906000526020600020905b81548152906001019060200180831161110857829003601f168201915b5050506003909301549192505060ff1684565b60008181526006602090815260409091208351909161115e9160018401918601906115df565b50505050565b6040805160e0810182526001805480835260208084018a81528486018a9052606085018990526080850188905260a08501879052600060c08601819052928352600482529490912083518155935180519394936111c89385019291909101906115df565b50604082015180516111e49160028401916020909101906115df565b50606082015180516112009160038401916020909101906115df565b506080820151805161121c9160048401916020909101906115df565b5060a0820151600582015560c0909101516006909101805460ff191691151591909117905550506001805481019055505050565b6004602090815260009182526040918290208054600180830180548651600293821615610100026000190190911692909204601f8101869004860283018601909652858252919492939092908301828280156112ed5780601f106112c2576101008083540402835291602001916112ed565b820191906000526020600020905b8154815290600101906020018083116112d057829003601f168201915b50505060028085018054604080516020601f600019610100600187161502019094169590950492830185900485028101850190915281815295969594509092509083018282801561137f5780601f106113545761010080835404028352916020019161137f565b820191906000526020600020905b81548152906001019060200180831161136257829003601f168201915b5050505060038301805460408051602060026001851615610100026000190190941693909304601f810184900484028201840190925281815294959493509083018282801561140f5780601f106113e45761010080835404028352916020019161140f565b820191906000526020600020905b8154815290600101906020018083116113f257829003601f168201915b5050505060048301805460408051602060026001851615610100026000190190941693909304601f810184900484028201840190925281815294959493509083018282801561149f5780601f106114745761010080835404028352916020019161149f565b820191906000526020600020905b81548152906001019060200180831161148257829003601f168201915b50505050600583015460069093015491929160ff16905087565b6007602090815260009182526040918290208054600180830180548651600293821615610100026000190190911692909204601f8101869004860283018601909652858252919492939092908301828280156115565780601f1061152b57610100808354040283529160200191611556565b820191906000526020600020905b81548152906001019060200180831161153957829003601f168201915b5050505060028301546003840154600490940154929360ff918216939092501685565b60008181526007602090815260409091208351909161115e9160018401918601906115df565b6000908152600760205260409020600401805460ff19166001179055565b6000908152600560205260409020600401805460ff1916911515919091179055565b828054600181600116156101000203166002900490600052602060002090601f016020900481019282601f1061162057805160ff191683800117855561164d565b8280016001018555821561164d579182015b8281111561164d578251825591602001919060010190611632565b5061165992915061165d565b5090565b61167791905b808211156116595760008155600101611663565b9056fea165627a7a723058209822c18f4bd1bfad1da2ea7a2e6127649523cf9eae808a408c6b8ecf700bf2060029",
  "source": "pragma solidity ^0.5.0;\r\n\r\ncontract Supplier {\r\n    uint public taskCount = 0;\r\n    uint public itemCount = 0;\r\n    uint public locationCount = 0;\r\n    uint public supplierCount = 0;\r\n\r\n\r\n    enum taskStatus {\r\n        Initial,\r\n        InProgress,\r\n        EnRoute\r\n    }\r\n\r\n    enum region {\r\n        GP,\r\n        KZN,\r\n        EC,\r\n        WC,\r\n        NC,\r\n        LP,\r\n        FS,\r\n        NW,\r\n        MP\r\n    }\r\n\r\n    struct Item {\r\n        uint id;\r\n        string item;\r\n        string quantity;\r\n        string uom;\r\n        string source;\r\n        uint taskId;\r\n        bool isDeleted;\r\n    }\r\n\r\n    struct Location {\r\n        uint id;\r\n        string deliveryAddress;\r\n        string name;\r\n        bool isDeleted;\r\n    }\r\n\r\n    struct Supplier {\r\n        uint id;\r\n        string name;\r\n        region supplierRegion;\r\n        uint score;\r\n        bool isDeleted;\r\n    }\r\n\r\n    struct Task {\r\n        uint id;\r\n        uint deliveryDate;\r\n        uint locationId;\r\n        uint supplierId;\r\n        bool completed;\r\n        taskStatus status;\r\n        bool isDeleted;\r\n    }\r\n\r\n    mapping(uint => Item) public items;\r\n    mapping(uint => Task) public tasks;\r\n    mapping(uint => Location) public locations;\r\n    mapping(uint => Supplier) public suppliers;\r\n\r\n    constructor() public {\r\n        CreateSupplier(\"Sidlasonke solutions\", region.GP);\r\n        CreateLocation(\"107 3rd Rd, Hyde Park, Sandton, 2196\", \"Hyde Park High School\");\r\n        CreateItem(\"Peaches\", \"5\", \"Kg\", \"Pick n Pay\", 0);\r\n        CreateItem(\"Carrots\", \"10\", \"Kg\", \"Checkers\", 0);\r\n        CreateItem(\"Rice\", \"200\", \"g\", \"Woolworths\", 0);\r\n        CreateTask(1000, 0, 0, taskStatus.Initial);\r\n    }\r\n\r\n    // #region Create entity entries\r\n    function CreateItem (string memory _item, string memory _quantity, string memory _uom, string memory _source, uint _taskId) public {\r\n        items[itemCount] = Item(itemCount, _item, _quantity, _uom, _source, _taskId, false); \r\n        itemCount++;\r\n    }\r\n\r\n    function CreateTask (uint _deliveryDate, uint _locationId, uint _supplierId, taskStatus _status) public {\r\n        tasks[taskCount] = Task(taskCount, _deliveryDate, _locationId, _supplierId, false, _status, false);\r\n        taskCount++;\r\n    }\r\n\r\n    function CreateLocation (string memory _address, string memory _name) public {\r\n        locations[locationCount] = Location(locationCount, _address, _name, false);\r\n        locationCount++;\r\n    }\r\n\r\n    function CreateSupplier (string memory _name, region _region) public {\r\n        suppliers[supplierCount] = Supplier(supplierCount, _name, _region, 3, false);\r\n        supplierCount++;\r\n    }\r\n    // #endregion\r\n\r\n    // #region Update entity entries\r\n    function UpdateTaskStatus (taskStatus _status, uint _taskId) public {\r\n        Task storage task = tasks[_taskId];\r\n        task.status = _status;\r\n    }\r\n\r\n    function UpdateTaskCompletionStatus (bool _completed, uint _taskId) public {\r\n        Task storage task = tasks[_taskId];\r\n        task.completed = _completed;\r\n    }\r\n\r\n    function UpdateLocationAddress (string memory _address, uint _locationId) public {\r\n        Location storage location = locations[_locationId];\r\n        location.deliveryAddress = _address;\r\n    }\r\n\r\n    function UpdateSupplierScore (uint _score, uint _supplierId) public {\r\n        Supplier storage supplier = suppliers[_supplierId];\r\n        supplier.score = _score;\r\n    }\r\n\r\n    function UpdateSupplierName (string memory _name, uint _supplierId) public {\r\n        Supplier storage supplier = suppliers[_supplierId];\r\n        supplier.name = _name;\r\n    }\r\n    // #endregion\r\n\r\n    // #region Delete entity entries\r\n    function DeleteTask(uint _taskId) public {\r\n        Task storage task = tasks[_taskId];\r\n        task.isDeleted = true;\r\n    }\r\n\r\n    function DeleteItem(uint _itemId) public {\r\n        Item storage item = items[_itemId];\r\n        item.isDeleted = true;\r\n    }\r\n\r\n    function DeleteLocation(uint _locationId) public {\r\n        Location storage location = locations[_locationId];\r\n        location.isDeleted = true;\r\n    }\r\n\r\n    function DeleteSupplier(uint _supplierId) public {\r\n        Supplier storage supplier = suppliers[_supplierId];\r\n        supplier.isDeleted = true;\r\n    }\r\n    // #endregion\r\n\r\n    /*function GetLocationByName(string memory _locationName) public {\r\n        for (int x = 0; x < locations.length(); x++) {\r\n            if (locations[x].name == _locationName)\r\n                return locations[x];\r\n        }\r\n        return false;\r\n    }*/\r\n}",
  "sourcePath": "C:/eth/contracts/Supplier.sol",
  "compiler": {
    "name": "solc",
    "version": "0.5.0+commit.1d4f565a.Emscripten.clang"
  },
  "schemaVersion": "3.0.1",
  "updatedAt": "2021-04-05T12:07:51.141Z",
  "devdoc": {
    "methods": {}
  },
  "userdoc": {
    "methods": {}
  }
}